:020000040800F2
:1000000000000520411D0008151D0008171D0008EF
:10001000191D00081B1D00081D1D00080000000020
:100020000000000000000000000000001F1D00088C
:10003000211D000800000000231D0008251D0008E8
:10004000911D0008911D0008911D0008911D0008D8
:10005000911D0008911D0008911D0008911D0008C8
:10006000911D0008911D0008911D0008911D0008B8
:10007000911D0008911D0008911D0008911D0008A8
:10008000911D0008911D0008911D0008911D000898
:10009000911D0008911D0008911D0008911D000888
:1000A000911D0008911D0008911D0008911D000878
:1000B000911D0008911D0008911D0008911D000868
:1000C000911D0008911D0008911D0008911D000858
:1000D000911D0008911D0008911D0008911D000848
:1000E000911D0008911D0008911D0008911D000838
:1000F000911D0008911D0008911D0008911D000828
:10010000911D0008911D0008911D0008911D000817
:10011000911D0008911D0008911D0008911D000807
:10012000911D0008911D0008911D0008911D0008F7
:10013000911D0008911D0008911D0008911D0008E7
:10014000911D0008911D0008911D0008911D0008D7
:10015000911D0008911D0008911D0008911D0008C7
:10016000911D0008911D0008911D0008911D0008B7
:10017000911D0008911D0008000000000000000013
:10018000911D0008911D0008911D0008911D000897
:10019000911D0008911D000800000000911D00083D
:1001A000911D0008911D00080000000000000000E3
:1001B000911D00080000000000000000911D0008D3
:1001C000911D0008911D0008911D0008911D000857
:0801D000911D0008911D0008BB
:1001D80010B5054C237833B9044B13B10448AFF379
:1001E80000800123237010BD0C00002000000000D7
:1001F800941D000808B5034B1BB103490348AFF32E
:10020800008008BD0000000010000020941D0008B8
:1002180053B94AB9002908BF00281CBF4FF0FF3165
:100228004FF0FF3000F074B9ADF1080C6DE904CE61
:1002380000F006F8DDF804E0DDE9022304B07047B9
:100248002DE9F047089D04468E46002B4DD18A4281
:10025800944669D9B2FA82F252B101FA02F3C2F1B4
:10026800200120FA01F10CFA02FC41EA030E944045
:100278004FEA1C48210CBEFBF8F61FFA8CF708FB66
:1002880016E341EA034306FB07F199420AD91CEB3E
:10029800030306F1FF3080F01F81994240F21C8170
:1002A800023E63445B1AA4B2B3FBF8F008FB1033B8
:1002B80044EA034400FB07F7A7420AD91CEB0404ED
:1002C80000F1FF3380F00A81A74240F207816444BD
:1002D800023840EA0640E41B00261DB1D440002342
:1002E800C5E900433146BDE8F0878B4209D9002DA6
:1002F80000F0EF800026C5E9000130463146BDE830
:10030800F087B3FA83F6002E4AD18B4202D3824299
:1003180000F2F980841A61EB030301209E46002D48
:10032800E0D0C5E9004EDDE702B9FFDEB2FA82F29D
:10033800002A40F09280A1EB0C014FEA1C471FFAFB
:100348008CFE0126200CB1FBF7F307FB131140EAE2
:1003580001410EFB03F0884208D91CEB010103F1AF
:10036800FF3802D2884200F2CB804346091AA4B271
:10037800B1FBF7F007FB101144EA01440EFB00FE45
:10038800A64508D91CEB040400F1FF3102D2A645AA
:1003980000F2BB800846A4EB0E0440EA03409CE749
:1003A800C6F12007B34022FA07FC4CEA030C20FAF6
:1003B80007F401FA06F31C43F9404FEA1C4900FA16
:1003C80006F3B1FBF9F8200C1FFA8CFE09FB181193
:1003D80040EA014108FB0EF0884202FA06F20BD906
:1003E8001CEB010108F1FF3A80F08880884240F256
:1003F8008580A8F102086144091AA4B2B1FBF9F09A
:1004080009FB101144EA014100FB0EFE8E4508D994
:100418001CEB010100F1FF346CD28E456AD9023819
:10042800614440EA0840A0FB0294A1EB0E01A142FE
:10043800C846A64656D353D05DB1B3EB080261EB6C
:100448000E0101FA07F722FA06F3F1401F43C5E946
:10045800007100263146BDE8F087C2F12003D8407C
:100468000CFA02FC21FA03F3914001434FEA1C47BE
:100478001FFA8CFEB3FBF7F007FB10360B0C43EAB0
:10048800064300FB0EF69E4204FA02F408D91CEB60
:10049800030300F1FF382FD29E422DD9023863445E
:1004A8009B1B89B2B3FBF7F607FB163341EA0341FE
:1004B80006FB0EF38B4208D91CEB010106F1FF384D
:1004C80016D28B4214D9023E6144C91A46EA004644
:1004D80038E72E46284605E70646E3E61846F8E6D6
:1004E8004B45A9D2B9EB020864EB0C0E0138A3E71F
:1004F8004646EAE7204694E74046D1E7D0467BE700
:10050800023B614432E7304609E76444023842E777
:10051800704700BF70B50D4D0D4C641BA41000262C
:10052800A64209D10B4D0C4C01F030FC641BA41001
:100538000026A64205D170BD55F8043B9847013600
:10054800EEE755F8043B98470136F2E7CC1D000862
:10055800CC1D0008CC1D0008D01D0008024403462D
:10056800934200D1704703F8011BF9E738B50446F8
:100578000268136923F44053C1680B43136183680D
:100588000269134342691343C2691A430168CB687D
:1005980023F4164323F00C031343CB60026853691A
:1005A80023F4407381690B4353610368354A9342CE
:1005B8000ED002F5806293420AD002F5806293421F
:1005C80006D002F58062934202D000F0AFF901E054
:1005D80000F0BCF9E369B3F5004F29D000210318F6
:1005E80049411B1841F10001C90041EA5371DB0080
:1005F800181863684FEA83024FEA937341F10001C8
:10060800FFF706FE204DA5FB00325109642303FBCA
:1006180011031B013233A5FB03235B0903F0F0022E
:1006280002EB011203F00F03216813448B6038BDFD
:100638000023021843EB0301121841F10001C9001D
:1006480041EA5271D200101841F100016268921813
:100658005B41FFF7DDFD0C4DA5FB0032510964231A
:1006680003FB1103DB003233A5FB03235B095A00AC
:1006780002F4F87202EB011203F007032168134435
:100688008B60D4E7001001401F85EB5158B310B5BB
:10069800044690F83D300BB3242384F83D3022689B
:1006A800D36823F40053D3602046FFF75FFF226826
:1006B800136923F4904313612268536923F02A03D2
:1006C80053612268D36843F40053D3600020206448
:1006D800202384F83D3084F83E3010BD80F83C304B
:1006E80001F098FAD8E701207047000008B5314BAF
:1006F8009B6803F00C03042B57D0082B57D12D4BC4
:100708005A6802F03F025B6813F4800F2AD0294B25
:100718005968C1F3881C4FEA4C11B1EB0C006EEB21
:100728000E0E4FEA8E1343EA90638101091A63EBB8
:100738000E03DB0043EA5173C90011EB0C0C43F1C3
:100748000003590200234FEA4C2041EADC51FFF72D
:100758005FFD184B5B68C3F3014301335B00B0FBDB
:10076800F3F025E0134B5968C1F3881C4FEA4C118C
:10077800B1EB0C006EEB0E0E4FEA8E1343EA90635A
:100788008101091A63EB0E03DB0043EA5173C900C8
:1007980011EB0C0C43F10003990200234FEA8C2063
:1007A80041EA9C51FFF734FDD3E7034800E00348D2
:1007B80008BD00BF0038024000127A000024F4008F
:1007C800002800F09B8070B50D4604464F4B1B680F
:1007D80003F007038B4208D2CBB24C4A137013685C
:1007E80003F007038B4240F08B80236813F0020F5D
:1007F80017D013F0040F04D0454A936843F4E0532C
:100808009360236813F0080F04D0414A936843F4B7
:10081800604393603E4A936823F0F003A1680B435A
:100828009360236813F0010F32D06368012B21D045
:100838009A1E012A25D9364A126812F0020F61D091
:1008480033498A6822F0030213438B6000F020FECC
:1008580006462F4B9B6803F00C036268B3EB820FCC
:1008680016D000F015FE801B41F288339842F0D96B
:10087800032042E0264A126812F4003FE0D101202A
:100888003BE0234A126812F0007FD9D1012034E0FE
:100898001E4B1B6803F00703AB4207D9EAB21B4B98
:1008A8001A701B6803F00703AB422DD1236813F0BD
:1008B800040F06D0164A936823F4E053E1680B430B
:1008C8009360236813F0080F07D0114A936823F444
:1008D8006043216943EAC1039360FFF707FF0C4BAC
:1008E8009B68C3F303130B4AD35CD8400A4B1860C8
:1008F8000A4B186800F080FD002070BD0120704789
:100908000120FAE70120F8E70120F6E7003C024061
:1009180000380240AC1D0008080000200400002038
:10092800014B1868704700BF0800002008B5FFF7A2
:10093800F7FF044B9B68C3F38223034AD35CD84078
:1009480008BD00BF00380240BC1D000808B5FFF70D
:10095800E7FF044B9B68C3F34233034AD35CD84098
:1009680008BD00BF00380240BC1D000870B582B049
:100978000446056815F001050DD0A84AD2F88C3058
:1009880023F0C063C1690B43C2F88C30C369002BE4
:1009980000F0BF800025236813F0020F0BD09F4A98
:1009A800D2F88C3023F0C053216A0B43C2F88C3044
:1009B800236A03B90125236813F4005F0FD0974A0F
:1009C800D2F88C3023F44013A16C0B43C2F88C305E
:1009D800A36C03B90125B3F5001F00F09C802368C0
:1009E80013F4804F0FD08D4AD2F88C3023F4400393
:1009F800E16C0B43C2F88C30E36C03B90125B3F505
:100A0800000F00F09480236813F0080F40F09B80DB
:100A1800236813F0040F04D094F85420804BC3F8D3
:100A2800E021236813F0100F08D07C4AD2F89430E4
:100A380023F44003E16A0B43C2F89430236813F0AF
:100A4800200F0DD0754AD2F8943023F00063216B43
:100A58000B43C2F89430236BB3F1006F00F0DC80D5
:100A6800236813F0400F08D06C4AD2F8943023F072
:100A78008053A16A0B43C2F89430002D40F0D68011
:100A88002368802B00F0D280236813F4807F08D07D
:100A9800624AD2F88C3023F00043616B0B43C2F8F2
:100AA8008C30236813F4007F08D05C4AD2F88C306D
:100AB80023F40043A16B0B43C2F88C30236813F472
:100AC800806F08D0554AD2F88C3023F00043E16B90
:100AD8000B43C2F88C30236813F4006F08D04F4AD8
:100AE800D2F88C3023F48043216C0B43C2F88C304D
:100AF800236813F4805F00F01E81484AD2F89430CE
:100B080023F04043616C0B43C2F89430002002B0DC
:100B180070BD01253FE74149D1F88C3023F4F853E3
:100B28006269013A43EA0223C1F88C3057E73B492E
:100B3800D1F88C3023F4F8536269013A43EA02236E
:100B4800C1F88C305FE700230193344B1A6C42F0F4
:100B580080521A641B6C03F080530193019B314A45
:100B6800136843F48073136000F092FC06462D4B23
:100B78001B6813F4807F06D100F08AFC801B0228D2
:100B8800F5D90320C3E7254B1B6F13F4407314D02A
:100B9800626A02F440729A420FD0204B1A6F22F414
:100BA800407221490120C1F8400E0020C1F8400ED2
:100BB8001A671B6F13F0010F12D1636A03F44072B6
:100BC800B2F5407F1DD0154A936823F4F81393605B
:100BD80012490B6F626AC2F30B0213430B6717E7E4
:100BE80000F056FC06460D4B1B6F13F0020FE4D1C4
:100BF80000F04EFC801B41F288339842F3D9032061
:100C080085E706498A6822F4F81223F0704323F432
:100C1800407313438B60DBE7012521E7003802406E
:100C2800001047420070004000004742434B00223A
:100C38009A6600F02DFC0546414B1B6813F0006FC7
:100C480006D000F025FC401B0228F5D903205EE7FA
:100C5800226D3C4BC3F8D820236813F0010F01D054
:100C6800E269A2B113F0020F01D0226A7AB113F03F
:100C7800200F03D0226BB2F1006F08D013F0400FA1
:100C880012D0A36A83B9236BB3F1006F0CD16368E8
:100C9800A26843EA8213E26843EA0263226943EAEC
:100CA8000273274AC2F88430236813F4005F01D026
:100CB800A26C22B113F4804F19D0E36CBBB9204A5F
:100CC800D2F884106368A06843EA801301F0706169
:100CD8000B43216943EA0173C2F88430D2F88C309F
:100CE80023F01F03A16901390B43C2F88C30236834
:100CF80013F0800F0CD06368A26843EA8213E2689D
:100D080043EA0263226943EA02730D4AC2F8843057
:100D18000A4B01229A6600F0BBFB0546084B1B688C
:100D280013F0006F7FF4B0AE00F0B2FB401B022856
:100D3800F4D90320EBE60020E9E600BF00004742B3
:100D48000038024000104742002800F0E98170B5E1
:100D580082B00446036813F0010F3BD09F4B9B6899
:100D680003F00C03042B2CD09C4B9B6803F00C0362
:100D7800082B21D06368B3F5803F4FD0B3F5A02F7F
:100D880052D0964B1A6822F480321A601A6822F4FC
:100D980080221A606368002B50D000F079FB05466A
:100DA8008E4B1B6813F4003F14D100F071FB401BFD
:100DB8006428F5D90320BAE1884B5B6813F4800FE7
:100DC800D8D0864B1B6813F4003F03D06368002B10
:100DD80000F0A881236813F0020F54D07F4B9B6862
:100DE80013F00C0F3ED07D4B9B6803F00C03082BCF
:100DF80033D0E368002B68D0794B01221A6000F0E9
:100E080047FB0546754B1B6813F0020F54D100F0E1
:100E18003FFB401B0228F5D9032088E16F4A13687D
:100E280043F480331360B5E76C4B1A6842F48022B0
:100E38001A601A6842F480321A60ABE700F028FBA7
:100E48000546664B1B6813F4003FC3D000F020FB37
:100E5800401B6428F5D9032069E1604B5B6813F4F3
:100E6800800FC6D15D4B1B6813F0020F03D0E368F7
:100E7800012B40F05981594A136823F0F80321697E
:100E880043EAC1031360236813F0080F42D0636973
:100E98006BB3534B0122C3F8802E00F0F9FA0546D4
:100EA8004E4B5B6F13F0020F34D100F0F1FA401B88
:100EB8000228F5D903203AE1484A136823F0F803D9
:100EC800216943EAC1031360DDE7454B00221A603C
:100ED80000F0DEFA0546414B1B6813F0020FD2D032
:100EE80000F0D6FA401B0228F5D903201FE13C4B3D
:100EF8000022C3F8802E00F0CBFA0546374B5B6F13
:100F080013F0020F06D000F0C3FA401B0228F5D9EF
:100F180003200CE1236813F0040F77D02F4B1B6CD0
:100F280013F0805F33D1002301932C4B1A6C42F0ED
:100F380080521A641B6C03F080530193019B0125B6
:100F4800284B1B6813F4807F23D0A368012B34D06F
:100F5800052B38D0214B1A6F22F001021A671A6F3D
:100F680022F004021A67A368002B3DD000F090FA23
:100F780006461A4B1B6F13F0020F46D100F088FA91
:100F8800801B41F288339842F3D90320CFE0002533
:100F9800D6E7144A136843F48073136000F078FAB4
:100FA8000646104B1B6813F4807FCED100F070FA10
:100FB800801B0228F5D90320B9E0084A136F43F0D3
:100FC80001031367CFE7054B1A6F42F004021A6753
:100FD8001A6F42F001021A67C5E700BF00380240E5
:100FE800000047420070004000F052FA0646584B95
:100FF8001B6F13F0020F08D000F04AFA801B41F271
:1010080088339842F3D9032091E0EDB9A369002B06
:1010180000F08C804E4A926802F00C02082A54D0E4
:10102800022B17D04B4B00221A6600F031FA044607
:10103800474B1B6813F0007F45D000F029FA001BCE
:101048000228F5D9032072E0414A136C23F080533B
:101058001364DBE73F4B00221A6600F019FA0546D5
:101068003B4B1B6813F0007F06D000F011FA401BC1
:101078000228F5D903205AE0E369226A1343626A19
:1010880043EA8213A26A5208013A43EA0243E26A37
:1010980043EA0263226B43EA02732D4A53602D4BE5
:1010A80001221A6600F0F4F90446294B1B6813F074
:1010B800007F06D100F0ECF9001B0228F5D90320C7
:1010C80035E0002033E0002031E0012B31D0204B07
:1010D8005B6803F48001E26991422CD103F03F027E
:1010E800216A8A4229D1616A47F6C0721A40B2EB76
:1010F800811F24D103F44031A26A5208013AB1EBAE
:10110800024F1ED103F07062E16AB2EB016F1AD18F
:1011180003F0E043226BB3EB027F16D1002006E018
:1011280001207047012002E0012000E0002002B009
:1011380070BD0120FBE70120F9E70120F7E7012056
:10114800F5E70120F3E70120F1E70120EFE700BF11
:10115800003802400000474200230F2B00F2DE80D7
:1011680070B582B060E085685E000324B44025EA6B
:101178000405CC68B4402C438460456825EA020520
:101188004C68C4F300129A402A4342605AE0DC08D3
:10119800083450F8246003F0070295000F22AA4093
:1011A80026EA020E0A69AA4042EA0E0240F8242002
:1011B8005CE0062200E0002202FA0EF22A43023422
:1011C800574D45F82420574A14686FEA0C0224EA60
:1011D8000C054E6816F4803F01D04CEA0405514CCA
:1011E8002560646802EA04054E6816F4003F01D0E1
:1011F8004CEA04054B4C6560A46802EA04054E6895
:1012080016F4801F01D04CEA0405464CA560E4683A
:1012180022404D6815F4001F01D04CEA0402414CED
:10122800E26001330F2B77D801229A400C6804EA58
:10123800020C32EA0404F4D14C6804F00304013CC3
:10124800012C90D94A6802F00302032A09D0C46825
:101258005D000322AA4024EA02048A68AA402243C5
:10126800C2604A6802F00302022A90D004684FEA7A
:10127800430E032202FA0EF224EA02044A6802F03C
:10128800030202FA0EF2224302604A6812F4403F57
:10129800C7D000220192244A546C44F48044546418
:1012A800526C02F480420192019A9C08A51C1C4AC7
:1012B80052F8255003F003024FEA820E0F2202FA79
:1012C8000EF225EA0205194A90423FF474AF02F57E
:1012D8008062904216D002F58062904214D002F5E6
:1012E8008062904212D002F58062904210D002F5DE
:1012F800806290420ED002F5806290423FF459AF6E
:10130800072259E7012257E7022255E7032253E74C
:10131800042251E705224FE702B070BD704700BFB5
:1013280000380140003C0140003802400000024003
:101338000AB181617047090481617047074AD3681F
:1013480023F4E0631B041B0C000200F4E060034379
:1013580043F0BF6343F40033D360704700ED00E00F
:1013680000B5194BDB68C3F30223C3F1070CBCF1CA
:10137800040F28BF4FF0040C03F1040EBEF1060F52
:1013880018D9033B4FF0FF3E0EFA0CFC21EA0C0182
:1013980099400EFA03F322EA0303194300280BDBF2
:1013A8000901C9B200F1604000F5614080F80013FE
:1013B8005DF804FB0023E5E700F00F000901C9B25E
:1013C800024B1954F4E700BF00ED00E014ED00E013
:1013D8000138B0F1807F0BD24FF0E0235861054A05
:1013E800F02182F823100020986107221A617047C3
:1013F8000120704700ED00E010B504460E4B187848
:101408004FF47A73B3FBF0F30C4A1068B0FBF3F0B7
:10141800FFF7DEFF68B90F2C01D901200AE000228E
:1014280021464FF0FF30FFF79BFF054B1C60002063
:1014380000E0012010BD00BF0000002008000020CF
:101448000400002008B50B4B1A6842F400721A60B9
:101458001A6842F480621A601A6842F480721A604C
:101468000320FFF76BFF0020FFF7C6FF00F0B6FB75
:10147800002008BD003C0240034A1168034B1B785A
:101488000B441360704700BF2800002000000020B4
:10149800014B1868704700BF2800002038B5044683
:1014A800FFF7F6FF0546B4F1FF3F02D0044B1B7867
:1014B8001C44FFF7EDFF401BA042FAD338BD00BF24
:1014C8000000002070B58AB0002800F0978005461B
:1014D800046890F8BD333BB3032385F8BD33E36B51
:1014E80013F4807F01D100232B61286800F007F9ED
:1014F8002C4654F8106BEC460FCCACE80F000FCC20
:10150800ACE80F0094E803008CE803002B1D0ECB19
:10151800304600F0AFF8044658B1022385F8BD33D1
:10152800012420460AB070BD80F8BC3300F0AAFB45
:10153800D2E70021286800F0F5F9234616E0C3EB4E
:10154800C30205EB8202012182F83D1082F83C308B
:10155800A2F84230002182F83F1051649164C3EB35
:10156800C30205EB820211650133DBB269688B4265
:10157800E5D316E0C4EBC40305EB8303002283F82C
:10158800FD2183F8FC4183F8FF21C3F80422C3F846
:101598000822C4EBC40305EB8303C3F8102201340B
:1015A800E4B2A142E6D82C4654F8106BEC460FCCB6
:1015B800ACE80F000FCCACE80F0094E803008CE80F
:1015C80003002B1D0ECB304600F0D6F8044660B958
:1015D800002385F83830012385F8BD336B6A012B69
:1015E80008D0286800F08CF99BE7022385F8BD3302
:1015F800012496E7284600F003F8F2E7012490E773
:10160800034602680121C0F8FC13002083F8F403A4
:10161800936943F000639361536D43F0805343F043
:10162800030353657047000082B000230193019BB8
:10163800013301930E4A934214D80369002BF6DA5A
:1016480000230193036943F001030361019B013304
:101658000193074A934208D8036913F0010FF5D1A3
:10166800002000E0032002B070470320FBE700BF22
:10167800400D030084B010B5044603A880E80E00AE
:10168800089B012B1FD1A36B23F48033A363E3686A
:1016980023F4840323F04003E360E36823F4401356
:1016A800E3600F9B012B09D02046FFF7BDFF069B87
:1016B800012B1BD0BDE8104004B07047E36843F429
:1016C8008013E360F0E7E36843F04003E3602046FB
:1016D800FFF7AAFF0C9B23B9A36B43F48033A363E2
:1016E800E5E7A36B23F48033A363E0E7A36843F043
:1016F8000603A360A36843F02003A360DAE78368C6
:1017080023F00103836000207047000082B00023AB
:101718000193890141F020010161019B013301938B
:10172800054A934205D8036913F0200FF5D100202C
:1017380000E0032002B07047400D030082B0002390
:10174800019310230361019B01330193054A9342DE
:1017580005D8036913F0100FF5D1002000E003202D
:1017680002B07047400D0300D0F800381943C0F8A4
:10177800001800207047000084B02DE9F0410446AD
:1017880007A880E80E00002306E003F1400204EBFE
:1017980082020021516001330E2BF6D9119F27BB1D
:1017A800D4F8043843F00203C4F80438A36B23F4D4
:1017B8000013A363236843F040032360236843F0C6
:1017C800800323600023C4F8003E04F50065D4F8C4
:1017D8000038C4F800380C9B012B10D1099B4BB979
:1017E80000212046FFF7C0FF0DE0A36B43F4001370
:1017F800A363E7E701212046FFF7B6FF03E00321D3
:101808002046FFF7B1FF10212046FFF77FFF8046F3
:1018180008B14FF001082046FFF790FF08B14FF0DC
:10182800010800232B616B61EB610AE0C3B94FF03B
:101838000060C2F8000900220A614FF67F328A6010
:1018480001330799994210D904EB431202F510614C
:10185800D2F800090028E9DB0020C2F80009EAE70D
:101868004FF09040C2F80009E5E700230AE0C3B151
:101878004FF0904CC2F800CB002202614FF67F3245
:1018880082600133994211D904EB431202F53060AA
:10189800D2F8006B002EEADB4FF0000CC2F800CB48
:1018A800EAE74FF0006CC2F800CBE5E72B6923F4B8
:1018B80080732B610023A3616FF0804363610A9BEF
:1018C8001BB9A36943F01003A361A2690B4B13432F
:1018D800A3610D9B1BB1A36943F00803A361012F0A
:1018E80004D04046BDE8F04104B07047A36943F016
:1018F800804343F00403A361F3E700BF00383C8052
:10190800D0F8003E23F00303C0F8003ED0F80438B6
:1019180043F00203C0F8043800207047406900F023
:101928000100704738B50546C36823F0C043C3605B
:10193800012913D019BBC36843F08043C360002456
:101948000120FFF7ABFD01342846FFF7E7FF08B198
:10195800312CF5D9322C14D0002038BDC36843F09F
:101968000053C36000240120FFF798FD0134284686
:10197800FFF7D4FF0128EDD0312CF4D9EAE7012094
:10198800EBE70120E9E70000F0B58DB000240794EB
:10199800089409940A940B940194394B1A6B42F0F9
:1019A80004021A631A6B02F004020192019A02946B
:1019B8001A6B42F080021A631A6B02F080020292DC
:1019C800029A03941A6B42F002021A631A6B02F02D
:1019D80002020392039A04941A6B42F008021A63F3
:1019E8001A6B02F008020492049A05941A6B42F0EA
:1019F80040021A631A6B02F040020592059A069497
:101A08001A6B42F001021A631B6B03F00103069381
:101A1800069B1C4F224644F281013846FFF788FC9A
:101A2800194D224640212846FFF782FC4FF4005307
:101A380007934FF488130893099407A91348FFF7ED
:101A48008BFB44F2810307930126089609940A94B4
:101A580007A93846FFF780FB4023079308960994A7
:101A68000A9407A92846FFF777FB80230793089471
:101A7800099407A92846FFF76FFB0DB0F0BD00BF1A
:101A880000380240000402400018024000080240EA
:101A980072B6FEE708B50A480A4B03604FF4E13313
:101AA800436000238360C36003610C224261836149
:101AB800C361FEF7EBFD00B908BDFFF7E9FF00BF02
:101AC800340400200048004008B50C484FF0A043FB
:101AD8000360062343600222C2600023036182611F
:101AE8000122C261036243628262C2620363FFF73A
:101AF800E9FC00B908BDFFF7CBFF00BF2C000020B0
:101B080010B5AAB0342200211DA8FEF727FD002435
:101B1800189419941A941B941C945822214602A8CC
:101B2800FEF71CFD0094254B1A6C42F080521A6493
:101B38001B6C03F080530093009B0194204B1A68A0
:101B480042F440421A601B6803F440430193019B2E
:101B580001231D934FF4A0231E93022323934FF4D4
:101B680080022492082225924FF4C0712691042104
:101B78002791289229931DA8FFF7E6F8C0B90F23EB
:101B880018930223199300231A934FF480521B923F
:101B98001C93032118A8FEF713FE58B920230293BB
:101BA80000230E9302A8FEF7E1FE28B92AB010BD63
:101BB800FFF76EFFFFF76CFFFFF76AFF0038024080
:101BC8000070004008B5FFF73DFCFFF799FFFFF7ED
:101BD800DBFEFFF75FFFFFF777FFFEE782B000212C
:101BE80000910B4B5A6C42F480425A645A6C02F4CE
:101BF80080420092009A01911A6C42F080521A6455
:101C08001B6C03F080530193019B02B0704700BF27
:101C18000038024000B589B000230393049305936C
:101C2800069307930268154B9A4202D009B05DF8F3
:101C380004FB0021019103F5F8331A6C42F4802269
:101C48001A641A6C02F480220192019A02911A6BAA
:101C580042F008021A631B6B03F008030293029B0D
:101C68004FF440730393022304930323069307233B
:101C7800079303A90248FFF76FFAD7E70048004027
:101C8800000C024070B588B00023039304930593B9
:101C9800069307930368B3F1A04F01D008B070BD55
:101CA80000250195174C236B43F001032363236B35
:101CB80003F001030193019B4FF4E85303930223BC
:101CC8000493032306930A2307930F4E03A9304670
:101CD800FFF742FA4FF4007303930495059503A99F
:101CE8003046FFF739FA636B43F08003636302956C
:101CF800636C43F480436364636C03F4804302932E
:101D0800029BCBE70038024000000240FEE7FEE7F6
:101D1800FEE7FEE7FEE770477047704708B5FFF734
:101D2800ABFB08BD034AD2F8883043F47003C2F80D
:101D38008830704700ED00E0DFF834D00D480E49D8
:101D48000E4A002302E0D458C4500433C4188C420D
:101D5800F9D30B4A0B4C002301E013600432A24272
:101D6800FBD3FFF7DFFFFEF7D5FBFFF72BFF70472D
:101D780000000520000000200C000020D41D0008F1
:101D88000C00002078040020FEE70000F8B500BF32
:101D9800F8BC08BC9E467047F8B500BFF8BC08BC44
:041DA8009E4670479C
:101DAC0000000000000000000102030406070809FF
:081DBC00000000000102030415
:081DC40084E4FF7F0100000030
:041DCC00FD0100080D
:041DD000D90100082D
:0C1DD40001000000100000000024F400DA
:0400000508001D4191
:00000001FF
